{
  "address": "0x3EA363B8CE16A26BFF70484883587DcF7E53C27d",
  "abi": [
    {
      "inputs": [],
      "name": "WST_ETH",
      "outputs": [
        {
          "internalType": "address",
          "name": "",
          "type": "address"
        }
      ],
      "stateMutability": "view",
      "type": "function"
    },
    {
      "inputs": [],
      "name": "read",
      "outputs": [
        {
          "internalType": "int224",
          "name": "value",
          "type": "int224"
        },
        {
          "internalType": "uint32",
          "name": "timestamp",
          "type": "uint32"
        }
      ],
      "stateMutability": "view",
      "type": "function"
    }
  ],
  "transactionHash": "0x8be627b2d63e295e8d900b8344f5b96ed06a94a9abf27f3fa441bae76d85bc6f",
  "args": [],
  "numDeployments": 1,
  "solcInputHash": "7ae9f9a8127f75f5c81f252a97dcee8e",
  "bytecode": "0x6080604052348015600f57600080fd5b506101878061001f6000396000f3fe608060405234801561001057600080fd5b50600436106100365760003560e01c80635664cb481461003b57806357de26a414610080575b600080fd5b610056737f39c581f595b53c5cb19bd0b3f8da6c935e2ca081565b60405173ffffffffffffffffffffffffffffffffffffffff90911681526020015b60405180910390f35b6100886100a7565b60408051601b9390930b835263ffffffff909116602083015201610077565b6000806000737f39c581f595b53c5cb19bd0b3f8da6c935e2ca073ffffffffffffffffffffffffffffffffffffffff1663035faf826040518163ffffffff1660e01b8152600401602060405180830381865afa15801561010b573d6000803e3d6000fd5b505050506040513d601f19601f8201168201806040525081019061012f9190610138565b93429350915050565b60006020828403121561014a57600080fd5b505191905056fea26469706673582212200113d40fd861125e66ddccbcc828a0cfb9d596828013a64fde6d10cf5024f8d864736f6c634300081b0033",
  "devdoc": {
    "details": "This contract implements only the IApi3ReaderProxy interface and not the AggregatorV2V3Interface which is usually implemented by Api3 proxies. The user of this contract needs to be aware of this limitation and only use this contract where the IApi3ReaderProxy interface is expected.",
    "kind": "dev",
    "methods": {
      "read()": {
        "details": "Returns the stETH/wstETH exchange rate with 18 decimals precision. The timestamp returned is the current block timestamp.",
        "returns": {
          "timestamp": "Data feed timestamp",
          "value": "Data feed value"
        }
      }
    },
    "title": "An immutable proxy contract that reads the stETH per wstETH ratio directly from the WstETH contract on Ethereum.",
    "version": 1
  },
  "userdoc": {
    "kind": "user",
    "methods": {
      "WST_ETH()": {
        "notice": "The address of the wstETH contract on Ethereum mainnet."
      },
      "read()": {
        "notice": "Returns the current value and timestamp of the API3 data feed associated with the proxy contract"
      }
    },
    "version": 1
  },
  "storageLayout": {
    "storage": [],
    "types": null
  }
}